{
  "contractName": "task1",
  "abi": [
    {
      "inputs": [
        {
          "internalType": "uint256",
          "name": "",
          "type": "uint256"
        }
      ],
      "name": "array",
      "outputs": [
        {
          "internalType": "uint256",
          "name": "",
          "type": "uint256"
        }
      ],
      "stateMutability": "view",
      "type": "function"
    },
    {
      "inputs": [
        {
          "internalType": "uint256",
          "name": "a",
          "type": "uint256"
        },
        {
          "internalType": "uint256",
          "name": "b",
          "type": "uint256"
        }
      ],
      "name": "www",
      "outputs": [],
      "stateMutability": "nonpayable",
      "type": "function"
    }
  ],
  "bytecode": "0x608060405234801561001057600080fd5b506102c5806100206000396000f3fe608060405234801561001057600080fd5b50600436106100365760003560e01c806338d941931461003b5780639d1eb4241461006b575b600080fd5b6100556004803603810190610050919061014c565b610087565b6040516100629190610188565b60405180910390f35b610085600480360381019061008091906101a3565b6100a2565b005b600081600a811061009757600080fd5b016000915090505481565b600082101580156100b4575060098211155b6100f3576040517f08c379a00000000000000000000000000000000000000000000000000000000081526004016100ea90610240565b60405180910390fd5b80600083600a811061010857610107610260565b5b01819055505050565b600080fd5b6000819050919050565b61012981610116565b811461013457600080fd5b50565b60008135905061014681610120565b92915050565b60006020828403121561016257610161610111565b5b600061017084828501610137565b91505092915050565b61018281610116565b82525050565b600060208201905061019d6000830184610179565b92915050565b600080604083850312156101ba576101b9610111565b5b60006101c885828601610137565b92505060206101d985828601610137565b9150509250929050565b600082825260208201905092915050565b7f56206d61737369766520767365676f2031302063686973656c00000000000000600082015250565b600061022a6019836101e3565b9150610235826101f4565b602082019050919050565b600060208201905081810360008301526102598161021d565b9050919050565b7f4e487b7100000000000000000000000000000000000000000000000000000000600052603260045260246000fdfea26469706673582212201493f53b914e59343d37b6eee223d6aeb1d0d1c41f70da2c981477259bc35fa864736f6c634300080f0033",
  "immutableReferences": {},
  "source": "// SPDX-License-Identifier: GPL-3.0\npragma solidity >=0.7.0 <0.9.0;\ncontract task1 {\n    \nuint[10] public array;\nfunction www (uint a,uint b) public   {\nrequire( a >=0 && a <=9, \"V massive vsego 10 chisel\");\narray [a] =b;\n}\n\n\n\n}\n",
  "sourcePath": "/home/artem/yyyyyyyyy/contracts/WWWW.sol",
  "compiler": {
    "name": "solc",
    "version": "0.8.15+commit.e14f2714.Emscripten.clang"
  },
  "schemaVersion": "3.4.9",
  "updatedAt": "2022-09-14T17:45:01.983Z",
  "devdoc": {
    "kind": "dev",
    "methods": {},
    "version": 1
  },
  "userdoc": {
    "kind": "user",
    "methods": {},
    "version": 1
  }
}